{
	"tutedudecourse/seeFunders.sol": {
		"seeFunders": {
			"abi": [
				{
					"inputs": [],
					"stateMutability": "nonpayable",
					"type": "constructor"
				},
				{
					"inputs": [],
					"name": "fund",
					"outputs": [],
					"stateMutability": "payable",
					"type": "function"
				},
				{
					"inputs": [
						{
							"internalType": "address",
							"name": "",
							"type": "address"
						}
					],
					"name": "funders",
					"outputs": [
						{
							"internalType": "uint256",
							"name": "",
							"type": "uint256"
						}
					],
					"stateMutability": "view",
					"type": "function"
				},
				{
					"inputs": [],
					"name": "getBlanc",
					"outputs": [
						{
							"internalType": "uint256",
							"name": "",
							"type": "uint256"
						}
					],
					"stateMutability": "view",
					"type": "function"
				},
				{
					"inputs": [
						{
							"internalType": "address",
							"name": "funder",
							"type": "address"
						}
					],
					"name": "getFundamt",
					"outputs": [
						{
							"internalType": "uint256",
							"name": "",
							"type": "uint256"
						}
					],
					"stateMutability": "view",
					"type": "function"
				},
				{
					"inputs": [],
					"name": "owner",
					"outputs": [
						{
							"internalType": "address",
							"name": "",
							"type": "address"
						}
					],
					"stateMutability": "view",
					"type": "function"
				},
				{
					"inputs": [
						{
							"internalType": "uint256",
							"name": "amt",
							"type": "uint256"
						}
					],
					"name": "withdrows",
					"outputs": [],
					"stateMutability": "nonpayable",
					"type": "function"
				}
			],
			"devdoc": {
				"kind": "dev",
				"methods": {},
				"version": 1
			},
			"evm": {
				"assembly": "    /* \"tutedudecourse/seeFunders.sol\":75:1048  contract seeFunders {... */\n  mstore(0x40, 0x80)\n    /* \"tutedudecourse/seeFunders.sol\":179:227  constructor(){... */\n  callvalue\n  dup1\n  iszero\n  tag_1\n  jumpi\n  revert(0x00, 0x00)\ntag_1:\n  pop\n    /* \"tutedudecourse/seeFunders.sol\":209:219  msg.sender */\n  caller\n    /* \"tutedudecourse/seeFunders.sol\":203:208  owner */\n  0x00\n  0x00\n    /* \"tutedudecourse/seeFunders.sol\":203:219  owner=msg.sender */\n  0x0100\n  exp\n  dup2\n  sload\n  dup2\n  0xffffffffffffffffffffffffffffffffffffffff\n  mul\n  not\n  and\n  swap1\n  dup4\n  0xffffffffffffffffffffffffffffffffffffffff\n  and\n  mul\n  or\n  swap1\n  sstore\n  pop\n    /* \"tutedudecourse/seeFunders.sol\":75:1048  contract seeFunders {... */\n  dataSize(sub_0)\n  dup1\n  dataOffset(sub_0)\n  0x00\n  codecopy\n  0x00\n  return\nstop\n\nsub_0: assembly {\n        /* \"tutedudecourse/seeFunders.sol\":75:1048  contract seeFunders {... */\n      mstore(0x40, 0x80)\n      jumpi(tag_1, lt(calldatasize, 0x04))\n      shr(0xe0, calldataload(0x00))\n      dup1\n      0x031b3677\n      eq\n      tag_2\n      jumpi\n      dup1\n      0x61e9b9a1\n      eq\n      tag_3\n      jumpi\n      dup1\n      0x8da5cb5b\n      eq\n      tag_4\n      jumpi\n      dup1\n      0xa0d368d7\n      eq\n      tag_5\n      jumpi\n      dup1\n      0xb60d4288\n      eq\n      tag_6\n      jumpi\n      dup1\n      0xd407ca94\n      eq\n      tag_7\n      jumpi\n    tag_1:\n      revert(0x00, 0x00)\n        /* \"tutedudecourse/seeFunders.sol\":130:172  mapping (address=> uint256) public funders */\n    tag_2:\n      callvalue\n      dup1\n      iszero\n      tag_8\n      jumpi\n      revert(0x00, 0x00)\n    tag_8:\n      pop\n      tag_9\n      0x04\n      dup1\n      calldatasize\n      sub\n      dup2\n      add\n      swap1\n      tag_10\n      swap2\n      swap1\n      tag_11\n      jump\t// in\n    tag_10:\n      tag_12\n      jump\t// in\n    tag_9:\n      mload(0x40)\n      tag_13\n      swap2\n      swap1\n      tag_14\n      jump\t// in\n    tag_13:\n      mload(0x40)\n      dup1\n      swap2\n      sub\n      swap1\n      return\n        /* \"tutedudecourse/seeFunders.sol\":564:831  function withdrows(uint amt)public  onlyowner {... */\n    tag_3:\n      callvalue\n      dup1\n      iszero\n      tag_15\n      jumpi\n      revert(0x00, 0x00)\n    tag_15:\n      pop\n      tag_16\n      0x04\n      dup1\n      calldatasize\n      sub\n      dup2\n      add\n      swap1\n      tag_17\n      swap2\n      swap1\n      tag_18\n      jump\t// in\n    tag_17:\n      tag_19\n      jump\t// in\n    tag_16:\n      stop\n        /* \"tutedudecourse/seeFunders.sol\":102:123  address public  owner */\n    tag_4:\n      callvalue\n      dup1\n      iszero\n      tag_20\n      jumpi\n      revert(0x00, 0x00)\n    tag_20:\n      pop\n      tag_21\n      tag_22\n      jump\t// in\n    tag_21:\n      mload(0x40)\n      tag_23\n      swap2\n      swap1\n      tag_24\n      jump\t// in\n    tag_23:\n      mload(0x40)\n      dup1\n      swap2\n      sub\n      swap1\n      return\n        /* \"tutedudecourse/seeFunders.sol\":837:933  function getBlanc() public  view returns(uint256){... */\n    tag_5:\n      callvalue\n      dup1\n      iszero\n      tag_25\n      jumpi\n      revert(0x00, 0x00)\n    tag_25:\n      pop\n      tag_26\n      tag_27\n      jump\t// in\n    tag_26:\n      mload(0x40)\n      tag_28\n      swap2\n      swap1\n      tag_14\n      jump\t// in\n    tag_28:\n      mload(0x40)\n      dup1\n      swap2\n      sub\n      swap1\n      return\n        /* \"tutedudecourse/seeFunders.sol\":344:517  function fund() public payable {... */\n    tag_6:\n      tag_29\n      tag_30\n      jump\t// in\n    tag_29:\n      stop\n        /* \"tutedudecourse/seeFunders.sol\":939:1045  function getFundamt(address funder) public view returns (uint256){... */\n    tag_7:\n      callvalue\n      dup1\n      iszero\n      tag_31\n      jumpi\n      revert(0x00, 0x00)\n    tag_31:\n      pop\n      tag_32\n      0x04\n      dup1\n      calldatasize\n      sub\n      dup2\n      add\n      swap1\n      tag_33\n      swap2\n      swap1\n      tag_11\n      jump\t// in\n    tag_33:\n      tag_34\n      jump\t// in\n    tag_32:\n      mload(0x40)\n      tag_35\n      swap2\n      swap1\n      tag_14\n      jump\t// in\n    tag_35:\n      mload(0x40)\n      dup1\n      swap2\n      sub\n      swap1\n      return\n        /* \"tutedudecourse/seeFunders.sol\":130:172  mapping (address=> uint256) public funders */\n    tag_12:\n      mstore(0x20, 0x01)\n      dup1\n      0x00\n      mstore\n      keccak256(0x00, 0x40)\n      0x00\n      swap2\n      pop\n      swap1\n      pop\n      sload\n      dup2\n      jump\t// out\n        /* \"tutedudecourse/seeFunders.sol\":564:831  function withdrows(uint amt)public  onlyowner {... */\n    tag_19:\n        /* \"tutedudecourse/seeFunders.sol\":289:294  owner */\n      0x00\n      0x00\n      swap1\n      sload\n      swap1\n      0x0100\n      exp\n      swap1\n      div\n      0xffffffffffffffffffffffffffffffffffffffff\n      and\n        /* \"tutedudecourse/seeFunders.sol\":277:294  msg.sender==owner */\n      0xffffffffffffffffffffffffffffffffffffffff\n      and\n        /* \"tutedudecourse/seeFunders.sol\":277:287  msg.sender */\n      caller\n        /* \"tutedudecourse/seeFunders.sol\":277:294  msg.sender==owner */\n      0xffffffffffffffffffffffffffffffffffffffff\n      and\n      eq\n        /* \"tutedudecourse/seeFunders.sol\":269:318  require(msg.sender==owner, \"onluy owner can see\") */\n      tag_37\n      jumpi\n      mload(0x40)\n      0x08c379a000000000000000000000000000000000000000000000000000000000\n      dup2\n      mstore\n      0x04\n      add\n      tag_38\n      swap1\n      tag_39\n      jump\t// in\n    tag_38:\n      mload(0x40)\n      dup1\n      swap2\n      sub\n      swap1\n      revert\n    tag_37:\n        /* \"tutedudecourse/seeFunders.sol\":651:654  amt */\n      dup1\n        /* \"tutedudecourse/seeFunders.sol\":629:650  address(this).balance */\n      selfbalance\n        /* \"tutedudecourse/seeFunders.sol\":629:654  address(this).balance>amt */\n      gt\n        /* \"tutedudecourse/seeFunders.sol\":621:679  require(address(this).balance>amt, \"insufficient balance\") */\n      tag_41\n      jumpi\n      mload(0x40)\n      0x08c379a000000000000000000000000000000000000000000000000000000000\n      dup2\n      mstore\n      0x04\n      add\n      tag_42\n      swap1\n      tag_43\n      jump\t// in\n    tag_42:\n      mload(0x40)\n      dup1\n      swap2\n      sub\n      swap1\n      revert\n    tag_41:\n        /* \"tutedudecourse/seeFunders.sol\":734:746  bool success */\n      0x00\n        /* \"tutedudecourse/seeFunders.sol\":757:762  owner */\n      0x00\n      0x00\n      swap1\n      sload\n      swap1\n      0x0100\n      exp\n      swap1\n      div\n      0xffffffffffffffffffffffffffffffffffffffff\n      and\n        /* \"tutedudecourse/seeFunders.sol\":749:768  payable(owner).call */\n      0xffffffffffffffffffffffffffffffffffffffff\n      and\n        /* \"tutedudecourse/seeFunders.sol\":775:778  amt */\n      dup3\n        /* \"tutedudecourse/seeFunders.sol\":749:783  payable(owner).call{value:amt}(\"\") */\n      mload(0x40)\n      tag_44\n      swap1\n      tag_45\n      jump\t// in\n    tag_44:\n      0x00\n      mload(0x40)\n      dup1\n      dup4\n      sub\n      dup2\n      dup6\n      dup8\n      gas\n      call\n      swap3\n      pop\n      pop\n      pop\n      returndatasize\n      dup1\n      0x00\n      dup2\n      eq\n      tag_48\n      jumpi\n      mload(0x40)\n      swap2\n      pop\n      and(add(returndatasize, 0x3f), not(0x1f))\n      dup3\n      add\n      0x40\n      mstore\n      returndatasize\n      dup3\n      mstore\n      returndatasize\n      0x00\n      0x20\n      dup5\n      add\n      returndatacopy\n      jump(tag_47)\n    tag_48:\n      0x60\n      swap2\n      pop\n    tag_47:\n      pop\n        /* \"tutedudecourse/seeFunders.sol\":733:783  (bool success,)=payable(owner).call{value:amt}(\"\") */\n      pop\n      swap1\n      pop\n        /* \"tutedudecourse/seeFunders.sol\":802:809  success */\n      dup1\n        /* \"tutedudecourse/seeFunders.sol\":794:821  require(success, \"Invalid\") */\n      tag_49\n      jumpi\n      mload(0x40)\n      0x08c379a000000000000000000000000000000000000000000000000000000000\n      dup2\n      mstore\n      0x04\n      add\n      tag_50\n      swap1\n      tag_51\n      jump\t// in\n    tag_50:\n      mload(0x40)\n      dup1\n      swap2\n      sub\n      swap1\n      revert\n    tag_49:\n        /* \"tutedudecourse/seeFunders.sol\":610:831  {... */\n      pop\n        /* \"tutedudecourse/seeFunders.sol\":564:831  function withdrows(uint amt)public  onlyowner {... */\n      pop\n      jump\t// out\n        /* \"tutedudecourse/seeFunders.sol\":102:123  address public  owner */\n    tag_22:\n      0x00\n      0x00\n      swap1\n      sload\n      swap1\n      0x0100\n      exp\n      swap1\n      div\n      0xffffffffffffffffffffffffffffffffffffffff\n      and\n      dup2\n      jump\t// out\n        /* \"tutedudecourse/seeFunders.sol\":837:933  function getBlanc() public  view returns(uint256){... */\n    tag_27:\n        /* \"tutedudecourse/seeFunders.sol\":878:885  uint256 */\n      0x00\n        /* \"tutedudecourse/seeFunders.sol\":904:925  address(this).balance */\n      selfbalance\n        /* \"tutedudecourse/seeFunders.sol\":897:925  return address(this).balance */\n      swap1\n      pop\n        /* \"tutedudecourse/seeFunders.sol\":837:933  function getBlanc() public  view returns(uint256){... */\n      swap1\n      jump\t// out\n        /* \"tutedudecourse/seeFunders.sol\":344:517  function fund() public payable {... */\n    tag_30:\n        /* \"tutedudecourse/seeFunders.sol\":405:406  0 */\n      0x00\n        /* \"tutedudecourse/seeFunders.sol\":394:403  msg.value */\n      callvalue\n        /* \"tutedudecourse/seeFunders.sol\":394:406  msg.value >0 */\n      gt\n        /* \"tutedudecourse/seeFunders.sol\":386:447  require(msg.value >0, \"cannot be zero must send some ethers\") */\n      tag_54\n      jumpi\n      mload(0x40)\n      0x08c379a000000000000000000000000000000000000000000000000000000000\n      dup2\n      mstore\n      0x04\n      add\n      tag_55\n      swap1\n      tag_56\n      jump\t// in\n    tag_55:\n      mload(0x40)\n      dup1\n      swap2\n      sub\n      swap1\n      revert\n    tag_54:\n        /* \"tutedudecourse/seeFunders.sol\":498:507  msg.value */\n      callvalue\n        /* \"tutedudecourse/seeFunders.sol\":478:485  funders */\n      0x01\n        /* \"tutedudecourse/seeFunders.sol\":478:497  funders[msg.sender] */\n      0x00\n        /* \"tutedudecourse/seeFunders.sol\":486:496  msg.sender */\n      caller\n        /* \"tutedudecourse/seeFunders.sol\":478:497  funders[msg.sender] */\n      0xffffffffffffffffffffffffffffffffffffffff\n      and\n      0xffffffffffffffffffffffffffffffffffffffff\n      and\n      dup2\n      mstore\n      0x20\n      add\n      swap1\n      dup2\n      mstore\n      0x20\n      add\n      0x00\n      keccak256\n      sload\n        /* \"tutedudecourse/seeFunders.sol\":478:507  funders[msg.sender]+msg.value */\n      tag_57\n      swap2\n      swap1\n      tag_58\n      jump\t// in\n    tag_57:\n        /* \"tutedudecourse/seeFunders.sol\":458:465  funders */\n      0x01\n        /* \"tutedudecourse/seeFunders.sol\":458:477  funders[msg.sender] */\n      0x00\n        /* \"tutedudecourse/seeFunders.sol\":466:476  msg.sender */\n      caller\n        /* \"tutedudecourse/seeFunders.sol\":458:477  funders[msg.sender] */\n      0xffffffffffffffffffffffffffffffffffffffff\n      and\n      0xffffffffffffffffffffffffffffffffffffffff\n      and\n      dup2\n      mstore\n      0x20\n      add\n      swap1\n      dup2\n      mstore\n      0x20\n      add\n      0x00\n      keccak256\n        /* \"tutedudecourse/seeFunders.sol\":458:507  funders[msg.sender]=funders[msg.sender]+msg.value */\n      dup2\n      swap1\n      sstore\n      pop\n        /* \"tutedudecourse/seeFunders.sol\":344:517  function fund() public payable {... */\n      jump\t// out\n        /* \"tutedudecourse/seeFunders.sol\":939:1045  function getFundamt(address funder) public view returns (uint256){... */\n    tag_34:\n        /* \"tutedudecourse/seeFunders.sol\":996:1003  uint256 */\n      0x00\n        /* \"tutedudecourse/seeFunders.sol\":1022:1029  funders */\n      0x01\n        /* \"tutedudecourse/seeFunders.sol\":1022:1037  funders[funder] */\n      0x00\n        /* \"tutedudecourse/seeFunders.sol\":1030:1036  funder */\n      dup4\n        /* \"tutedudecourse/seeFunders.sol\":1022:1037  funders[funder] */\n      0xffffffffffffffffffffffffffffffffffffffff\n      and\n      0xffffffffffffffffffffffffffffffffffffffff\n      and\n      dup2\n      mstore\n      0x20\n      add\n      swap1\n      dup2\n      mstore\n      0x20\n      add\n      0x00\n      keccak256\n      sload\n        /* \"tutedudecourse/seeFunders.sol\":1015:1037  return funders[funder] */\n      swap1\n      pop\n        /* \"tutedudecourse/seeFunders.sol\":939:1045  function getFundamt(address funder) public view returns (uint256){... */\n      swap2\n      swap1\n      pop\n      jump\t// out\n        /* \"#utility.yul\":88:205   */\n    tag_61:\n        /* \"#utility.yul\":197:198   */\n      0x00\n        /* \"#utility.yul\":194:195   */\n      0x00\n        /* \"#utility.yul\":187:199   */\n      revert\n        /* \"#utility.yul\":334:460   */\n    tag_63:\n        /* \"#utility.yul\":371:378   */\n      0x00\n        /* \"#utility.yul\":411:453   */\n      0xffffffffffffffffffffffffffffffffffffffff\n        /* \"#utility.yul\":404:409   */\n      dup3\n        /* \"#utility.yul\":400:454   */\n      and\n        /* \"#utility.yul\":389:454   */\n      swap1\n      pop\n        /* \"#utility.yul\":334:460   */\n      swap2\n      swap1\n      pop\n      jump\t// out\n        /* \"#utility.yul\":466:562   */\n    tag_64:\n        /* \"#utility.yul\":503:510   */\n      0x00\n        /* \"#utility.yul\":532:556   */\n      tag_91\n        /* \"#utility.yul\":550:555   */\n      dup3\n        /* \"#utility.yul\":532:556   */\n      tag_63\n      jump\t// in\n    tag_91:\n        /* \"#utility.yul\":521:556   */\n      swap1\n      pop\n        /* \"#utility.yul\":466:562   */\n      swap2\n      swap1\n      pop\n      jump\t// out\n        /* \"#utility.yul\":568:690   */\n    tag_65:\n        /* \"#utility.yul\":641:665   */\n      tag_93\n        /* \"#utility.yul\":659:664   */\n      dup2\n        /* \"#utility.yul\":641:665   */\n      tag_64\n      jump\t// in\n    tag_93:\n        /* \"#utility.yul\":634:639   */\n      dup2\n        /* \"#utility.yul\":631:666   */\n      eq\n        /* \"#utility.yul\":621:684   */\n      tag_94\n      jumpi\n        /* \"#utility.yul\":680:681   */\n      0x00\n        /* \"#utility.yul\":677:678   */\n      0x00\n        /* \"#utility.yul\":670:682   */\n      revert\n        /* \"#utility.yul\":621:684   */\n    tag_94:\n        /* \"#utility.yul\":568:690   */\n      pop\n      jump\t// out\n        /* \"#utility.yul\":696:835   */\n    tag_66:\n        /* \"#utility.yul\":742:747   */\n      0x00\n        /* \"#utility.yul\":780:786   */\n      dup2\n        /* \"#utility.yul\":767:787   */\n      calldataload\n        /* \"#utility.yul\":758:787   */\n      swap1\n      pop\n        /* \"#utility.yul\":796:829   */\n      tag_96\n        /* \"#utility.yul\":823:828   */\n      dup2\n        /* \"#utility.yul\":796:829   */\n      tag_65\n      jump\t// in\n    tag_96:\n        /* \"#utility.yul\":696:835   */\n      swap3\n      swap2\n      pop\n      pop\n      jump\t// out\n        /* \"#utility.yul\":841:1170   */\n    tag_11:\n        /* \"#utility.yul\":900:906   */\n      0x00\n        /* \"#utility.yul\":949:951   */\n      0x20\n        /* \"#utility.yul\":937:946   */\n      dup3\n        /* \"#utility.yul\":928:935   */\n      dup5\n        /* \"#utility.yul\":924:947   */\n      sub\n        /* \"#utility.yul\":920:952   */\n      slt\n        /* \"#utility.yul\":917:1036   */\n      iszero\n      tag_98\n      jumpi\n        /* \"#utility.yul\":955:1034   */\n      tag_99\n      tag_61\n      jump\t// in\n    tag_99:\n        /* \"#utility.yul\":917:1036   */\n    tag_98:\n        /* \"#utility.yul\":1075:1076   */\n      0x00\n        /* \"#utility.yul\":1100:1153   */\n      tag_100\n        /* \"#utility.yul\":1145:1152   */\n      dup5\n        /* \"#utility.yul\":1136:1142   */\n      dup3\n        /* \"#utility.yul\":1125:1134   */\n      dup6\n        /* \"#utility.yul\":1121:1143   */\n      add\n        /* \"#utility.yul\":1100:1153   */\n      tag_66\n      jump\t// in\n    tag_100:\n        /* \"#utility.yul\":1090:1153   */\n      swap2\n      pop\n        /* \"#utility.yul\":1046:1163   */\n      pop\n        /* \"#utility.yul\":841:1170   */\n      swap3\n      swap2\n      pop\n      pop\n      jump\t// out\n        /* \"#utility.yul\":1176:1253   */\n    tag_67:\n        /* \"#utility.yul\":1213:1220   */\n      0x00\n        /* \"#utility.yul\":1242:1247   */\n      dup2\n        /* \"#utility.yul\":1231:1247   */\n      swap1\n      pop\n        /* \"#utility.yul\":1176:1253   */\n      swap2\n      swap1\n      pop\n      jump\t// out\n        /* \"#utility.yul\":1259:1377   */\n    tag_68:\n        /* \"#utility.yul\":1346:1370   */\n      tag_103\n        /* \"#utility.yul\":1364:1369   */\n      dup2\n        /* \"#utility.yul\":1346:1370   */\n      tag_67\n      jump\t// in\n    tag_103:\n        /* \"#utility.yul\":1341:1344   */\n      dup3\n        /* \"#utility.yul\":1334:1371   */\n      mstore\n        /* \"#utility.yul\":1259:1377   */\n      pop\n      pop\n      jump\t// out\n        /* \"#utility.yul\":1383:1605   */\n    tag_14:\n        /* \"#utility.yul\":1476:1480   */\n      0x00\n        /* \"#utility.yul\":1514:1516   */\n      0x20\n        /* \"#utility.yul\":1503:1512   */\n      dup3\n        /* \"#utility.yul\":1499:1517   */\n      add\n        /* \"#utility.yul\":1491:1517   */\n      swap1\n      pop\n        /* \"#utility.yul\":1527:1598   */\n      tag_105\n        /* \"#utility.yul\":1595:1596   */\n      0x00\n        /* \"#utility.yul\":1584:1593   */\n      dup4\n        /* \"#utility.yul\":1580:1597   */\n      add\n        /* \"#utility.yul\":1571:1577   */\n      dup5\n        /* \"#utility.yul\":1527:1598   */\n      tag_68\n      jump\t// in\n    tag_105:\n        /* \"#utility.yul\":1383:1605   */\n      swap3\n      swap2\n      pop\n      pop\n      jump\t// out\n        /* \"#utility.yul\":1611:1733   */\n    tag_69:\n        /* \"#utility.yul\":1684:1708   */\n      tag_107\n        /* \"#utility.yul\":1702:1707   */\n      dup2\n        /* \"#utility.yul\":1684:1708   */\n      tag_67\n      jump\t// in\n    tag_107:\n        /* \"#utility.yul\":1677:1682   */\n      dup2\n        /* \"#utility.yul\":1674:1709   */\n      eq\n        /* \"#utility.yul\":1664:1727   */\n      tag_108\n      jumpi\n        /* \"#utility.yul\":1723:1724   */\n      0x00\n        /* \"#utility.yul\":1720:1721   */\n      0x00\n        /* \"#utility.yul\":1713:1725   */\n      revert\n        /* \"#utility.yul\":1664:1727   */\n    tag_108:\n        /* \"#utility.yul\":1611:1733   */\n      pop\n      jump\t// out\n        /* \"#utility.yul\":1739:1878   */\n    tag_70:\n        /* \"#utility.yul\":1785:1790   */\n      0x00\n        /* \"#utility.yul\":1823:1829   */\n      dup2\n        /* \"#utility.yul\":1810:1830   */\n      calldataload\n        /* \"#utility.yul\":1801:1830   */\n      swap1\n      pop\n        /* \"#utility.yul\":1839:1872   */\n      tag_110\n        /* \"#utility.yul\":1866:1871   */\n      dup2\n        /* \"#utility.yul\":1839:1872   */\n      tag_69\n      jump\t// in\n    tag_110:\n        /* \"#utility.yul\":1739:1878   */\n      swap3\n      swap2\n      pop\n      pop\n      jump\t// out\n        /* \"#utility.yul\":1884:2213   */\n    tag_18:\n        /* \"#utility.yul\":1943:1949   */\n      0x00\n        /* \"#utility.yul\":1992:1994   */\n      0x20\n        /* \"#utility.yul\":1980:1989   */\n      dup3\n        /* \"#utility.yul\":1971:1978   */\n      dup5\n        /* \"#utility.yul\":1967:1990   */\n      sub\n        /* \"#utility.yul\":1963:1995   */\n      slt\n        /* \"#utility.yul\":1960:2079   */\n      iszero\n      tag_112\n      jumpi\n        /* \"#utility.yul\":1998:2077   */\n      tag_113\n      tag_61\n      jump\t// in\n    tag_113:\n        /* \"#utility.yul\":1960:2079   */\n    tag_112:\n        /* \"#utility.yul\":2118:2119   */\n      0x00\n        /* \"#utility.yul\":2143:2196   */\n      tag_114\n        /* \"#utility.yul\":2188:2195   */\n      dup5\n        /* \"#utility.yul\":2179:2185   */\n      dup3\n        /* \"#utility.yul\":2168:2177   */\n      dup6\n        /* \"#utility.yul\":2164:2186   */\n      add\n        /* \"#utility.yul\":2143:2196   */\n      tag_70\n      jump\t// in\n    tag_114:\n        /* \"#utility.yul\":2133:2196   */\n      swap2\n      pop\n        /* \"#utility.yul\":2089:2206   */\n      pop\n        /* \"#utility.yul\":1884:2213   */\n      swap3\n      swap2\n      pop\n      pop\n      jump\t// out\n        /* \"#utility.yul\":2219:2337   */\n    tag_71:\n        /* \"#utility.yul\":2306:2330   */\n      tag_116\n        /* \"#utility.yul\":2324:2329   */\n      dup2\n        /* \"#utility.yul\":2306:2330   */\n      tag_64\n      jump\t// in\n    tag_116:\n        /* \"#utility.yul\":2301:2304   */\n      dup3\n        /* \"#utility.yul\":2294:2331   */\n      mstore\n        /* \"#utility.yul\":2219:2337   */\n      pop\n      pop\n      jump\t// out\n        /* \"#utility.yul\":2343:2565   */\n    tag_24:\n        /* \"#utility.yul\":2436:2440   */\n      0x00\n        /* \"#utility.yul\":2474:2476   */\n      0x20\n        /* \"#utility.yul\":2463:2472   */\n      dup3\n        /* \"#utility.yul\":2459:2477   */\n      add\n        /* \"#utility.yul\":2451:2477   */\n      swap1\n      pop\n        /* \"#utility.yul\":2487:2558   */\n      tag_118\n        /* \"#utility.yul\":2555:2556   */\n      0x00\n        /* \"#utility.yul\":2544:2553   */\n      dup4\n        /* \"#utility.yul\":2540:2557   */\n      add\n        /* \"#utility.yul\":2531:2537   */\n      dup5\n        /* \"#utility.yul\":2487:2558   */\n      tag_71\n      jump\t// in\n    tag_118:\n        /* \"#utility.yul\":2343:2565   */\n      swap3\n      swap2\n      pop\n      pop\n      jump\t// out\n        /* \"#utility.yul\":2571:2740   */\n    tag_72:\n        /* \"#utility.yul\":2655:2666   */\n      0x00\n        /* \"#utility.yul\":2689:2695   */\n      dup3\n        /* \"#utility.yul\":2684:2687   */\n      dup3\n        /* \"#utility.yul\":2677:2696   */\n      mstore\n        /* \"#utility.yul\":2729:2733   */\n      0x20\n        /* \"#utility.yul\":2724:2727   */\n      dup3\n        /* \"#utility.yul\":2720:2734   */\n      add\n        /* \"#utility.yul\":2705:2734   */\n      swap1\n      pop\n        /* \"#utility.yul\":2571:2740   */\n      swap3\n      swap2\n      pop\n      pop\n      jump\t// out\n        /* \"#utility.yul\":2746:2915   */\n    tag_73:\n        /* \"#utility.yul\":2886:2907   */\n      0x6f6e6c7579206f776e65722063616e2073656500000000000000000000000000\n        /* \"#utility.yul\":2882:2883   */\n      0x00\n        /* \"#utility.yul\":2874:2880   */\n      dup3\n        /* \"#utility.yul\":2870:2884   */\n      add\n        /* \"#utility.yul\":2863:2908   */\n      mstore\n        /* \"#utility.yul\":2746:2915   */\n      pop\n      jump\t// out\n        /* \"#utility.yul\":2921:3287   */\n    tag_74:\n        /* \"#utility.yul\":3063:3066   */\n      0x00\n        /* \"#utility.yul\":3084:3151   */\n      tag_122\n        /* \"#utility.yul\":3148:3150   */\n      0x13\n        /* \"#utility.yul\":3143:3146   */\n      dup4\n        /* \"#utility.yul\":3084:3151   */\n      tag_72\n      jump\t// in\n    tag_122:\n        /* \"#utility.yul\":3077:3151   */\n      swap2\n      pop\n        /* \"#utility.yul\":3160:3253   */\n      tag_123\n        /* \"#utility.yul\":3249:3252   */\n      dup3\n        /* \"#utility.yul\":3160:3253   */\n      tag_73\n      jump\t// in\n    tag_123:\n        /* \"#utility.yul\":3278:3280   */\n      0x20\n        /* \"#utility.yul\":3273:3276   */\n      dup3\n        /* \"#utility.yul\":3269:3281   */\n      add\n        /* \"#utility.yul\":3262:3281   */\n      swap1\n      pop\n        /* \"#utility.yul\":2921:3287   */\n      swap2\n      swap1\n      pop\n      jump\t// out\n        /* \"#utility.yul\":3293:3712   */\n    tag_39:\n        /* \"#utility.yul\":3459:3463   */\n      0x00\n        /* \"#utility.yul\":3497:3499   */\n      0x20\n        /* \"#utility.yul\":3486:3495   */\n      dup3\n        /* \"#utility.yul\":3482:3500   */\n      add\n        /* \"#utility.yul\":3474:3500   */\n      swap1\n      pop\n        /* \"#utility.yul\":3546:3555   */\n      dup2\n        /* \"#utility.yul\":3540:3544   */\n      dup2\n        /* \"#utility.yul\":3536:3556   */\n      sub\n        /* \"#utility.yul\":3532:3533   */\n      0x00\n        /* \"#utility.yul\":3521:3530   */\n      dup4\n        /* \"#utility.yul\":3517:3534   */\n      add\n        /* \"#utility.yul\":3510:3557   */\n      mstore\n        /* \"#utility.yul\":3574:3705   */\n      tag_125\n        /* \"#utility.yul\":3700:3704   */\n      dup2\n        /* \"#utility.yul\":3574:3705   */\n      tag_74\n      jump\t// in\n    tag_125:\n        /* \"#utility.yul\":3566:3705   */\n      swap1\n      pop\n        /* \"#utility.yul\":3293:3712   */\n      swap2\n      swap1\n      pop\n      jump\t// out\n        /* \"#utility.yul\":3718:3888   */\n    tag_75:\n        /* \"#utility.yul\":3858:3880   */\n      0x696e73756666696369656e742062616c616e6365000000000000000000000000\n        /* \"#utility.yul\":3854:3855   */\n      0x00\n        /* \"#utility.yul\":3846:3852   */\n      dup3\n        /* \"#utility.yul\":3842:3856   */\n      add\n        /* \"#utility.yul\":3835:3881   */\n      mstore\n        /* \"#utility.yul\":3718:3888   */\n      pop\n      jump\t// out\n        /* \"#utility.yul\":3894:4260   */\n    tag_76:\n        /* \"#utility.yul\":4036:4039   */\n      0x00\n        /* \"#utility.yul\":4057:4124   */\n      tag_128\n        /* \"#utility.yul\":4121:4123   */\n      0x14\n        /* \"#utility.yul\":4116:4119   */\n      dup4\n        /* \"#utility.yul\":4057:4124   */\n      tag_72\n      jump\t// in\n    tag_128:\n        /* \"#utility.yul\":4050:4124   */\n      swap2\n      pop\n        /* \"#utility.yul\":4133:4226   */\n      tag_129\n        /* \"#utility.yul\":4222:4225   */\n      dup3\n        /* \"#utility.yul\":4133:4226   */\n      tag_75\n      jump\t// in\n    tag_129:\n        /* \"#utility.yul\":4251:4253   */\n      0x20\n        /* \"#utility.yul\":4246:4249   */\n      dup3\n        /* \"#utility.yul\":4242:4254   */\n      add\n        /* \"#utility.yul\":4235:4254   */\n      swap1\n      pop\n        /* \"#utility.yul\":3894:4260   */\n      swap2\n      swap1\n      pop\n      jump\t// out\n        /* \"#utility.yul\":4266:4685   */\n    tag_43:\n        /* \"#utility.yul\":4432:4436   */\n      0x00\n        /* \"#utility.yul\":4470:4472   */\n      0x20\n        /* \"#utility.yul\":4459:4468   */\n      dup3\n        /* \"#utility.yul\":4455:4473   */\n      add\n        /* \"#utility.yul\":4447:4473   */\n      swap1\n      pop\n        /* \"#utility.yul\":4519:4528   */\n      dup2\n        /* \"#utility.yul\":4513:4517   */\n      dup2\n        /* \"#utility.yul\":4509:4529   */\n      sub\n        /* \"#utility.yul\":4505:4506   */\n      0x00\n        /* \"#utility.yul\":4494:4503   */\n      dup4\n        /* \"#utility.yul\":4490:4507   */\n      add\n        /* \"#utility.yul\":4483:4530   */\n      mstore\n        /* \"#utility.yul\":4547:4678   */\n      tag_131\n        /* \"#utility.yul\":4673:4677   */\n      dup2\n        /* \"#utility.yul\":4547:4678   */\n      tag_76\n      jump\t// in\n    tag_131:\n        /* \"#utility.yul\":4539:4678   */\n      swap1\n      pop\n        /* \"#utility.yul\":4266:4685   */\n      swap2\n      swap1\n      pop\n      jump\t// out\n        /* \"#utility.yul\":4691:4838   */\n    tag_77:\n        /* \"#utility.yul\":4792:4803   */\n      0x00\n        /* \"#utility.yul\":4829:4832   */\n      dup2\n        /* \"#utility.yul\":4814:4832   */\n      swap1\n      pop\n        /* \"#utility.yul\":4691:4838   */\n      swap3\n      swap2\n      pop\n      pop\n      jump\t// out\n        /* \"#utility.yul\":4844:4958   */\n    tag_78:\n      pop\n      jump\t// out\n        /* \"#utility.yul\":4964:5362   */\n    tag_79:\n        /* \"#utility.yul\":5123:5126   */\n      0x00\n        /* \"#utility.yul\":5144:5227   */\n      tag_135\n        /* \"#utility.yul\":5225:5226   */\n      0x00\n        /* \"#utility.yul\":5220:5223   */\n      dup4\n        /* \"#utility.yul\":5144:5227   */\n      tag_77\n      jump\t// in\n    tag_135:\n        /* \"#utility.yul\":5137:5227   */\n      swap2\n      pop\n        /* \"#utility.yul\":5236:5329   */\n      tag_136\n        /* \"#utility.yul\":5325:5328   */\n      dup3\n        /* \"#utility.yul\":5236:5329   */\n      tag_78\n      jump\t// in\n    tag_136:\n        /* \"#utility.yul\":5354:5355   */\n      0x00\n        /* \"#utility.yul\":5349:5352   */\n      dup3\n        /* \"#utility.yul\":5345:5356   */\n      add\n        /* \"#utility.yul\":5338:5356   */\n      swap1\n      pop\n        /* \"#utility.yul\":4964:5362   */\n      swap2\n      swap1\n      pop\n      jump\t// out\n        /* \"#utility.yul\":5368:5747   */\n    tag_45:\n        /* \"#utility.yul\":5552:5555   */\n      0x00\n        /* \"#utility.yul\":5574:5721   */\n      tag_138\n        /* \"#utility.yul\":5717:5720   */\n      dup3\n        /* \"#utility.yul\":5574:5721   */\n      tag_79\n      jump\t// in\n    tag_138:\n        /* \"#utility.yul\":5567:5721   */\n      swap2\n      pop\n        /* \"#utility.yul\":5738:5741   */\n      dup2\n        /* \"#utility.yul\":5731:5741   */\n      swap1\n      pop\n        /* \"#utility.yul\":5368:5747   */\n      swap2\n      swap1\n      pop\n      jump\t// out\n        /* \"#utility.yul\":5753:5910   */\n    tag_80:\n        /* \"#utility.yul\":5893:5902   */\n      0x496e76616c696400000000000000000000000000000000000000000000000000\n        /* \"#utility.yul\":5889:5890   */\n      0x00\n        /* \"#utility.yul\":5881:5887   */\n      dup3\n        /* \"#utility.yul\":5877:5891   */\n      add\n        /* \"#utility.yul\":5870:5903   */\n      mstore\n        /* \"#utility.yul\":5753:5910   */\n      pop\n      jump\t// out\n        /* \"#utility.yul\":5916:6281   */\n    tag_81:\n        /* \"#utility.yul\":6058:6061   */\n      0x00\n        /* \"#utility.yul\":6079:6145   */\n      tag_141\n        /* \"#utility.yul\":6143:6144   */\n      0x07\n        /* \"#utility.yul\":6138:6141   */\n      dup4\n        /* \"#utility.yul\":6079:6145   */\n      tag_72\n      jump\t// in\n    tag_141:\n        /* \"#utility.yul\":6072:6145   */\n      swap2\n      pop\n        /* \"#utility.yul\":6154:6247   */\n      tag_142\n        /* \"#utility.yul\":6243:6246   */\n      dup3\n        /* \"#utility.yul\":6154:6247   */\n      tag_80\n      jump\t// in\n    tag_142:\n        /* \"#utility.yul\":6272:6274   */\n      0x20\n        /* \"#utility.yul\":6267:6270   */\n      dup3\n        /* \"#utility.yul\":6263:6275   */\n      add\n        /* \"#utility.yul\":6256:6275   */\n      swap1\n      pop\n        /* \"#utility.yul\":5916:6281   */\n      swap2\n      swap1\n      pop\n      jump\t// out\n        /* \"#utility.yul\":6287:6706   */\n    tag_51:\n        /* \"#utility.yul\":6453:6457   */\n      0x00\n        /* \"#utility.yul\":6491:6493   */\n      0x20\n        /* \"#utility.yul\":6480:6489   */\n      dup3\n        /* \"#utility.yul\":6476:6494   */\n      add\n        /* \"#utility.yul\":6468:6494   */\n      swap1\n      pop\n        /* \"#utility.yul\":6540:6549   */\n      dup2\n        /* \"#utility.yul\":6534:6538   */\n      dup2\n        /* \"#utility.yul\":6530:6550   */\n      sub\n        /* \"#utility.yul\":6526:6527   */\n      0x00\n        /* \"#utility.yul\":6515:6524   */\n      dup4\n        /* \"#utility.yul\":6511:6528   */\n      add\n        /* \"#utility.yul\":6504:6551   */\n      mstore\n        /* \"#utility.yul\":6568:6699   */\n      tag_144\n        /* \"#utility.yul\":6694:6698   */\n      dup2\n        /* \"#utility.yul\":6568:6699   */\n      tag_81\n      jump\t// in\n    tag_144:\n        /* \"#utility.yul\":6560:6699   */\n      swap1\n      pop\n        /* \"#utility.yul\":6287:6706   */\n      swap2\n      swap1\n      pop\n      jump\t// out\n        /* \"#utility.yul\":6712:6935   */\n    tag_82:\n        /* \"#utility.yul\":6852:6886   */\n      0x63616e6e6f74206265207a65726f206d7573742073656e6420736f6d65206574\n        /* \"#utility.yul\":6848:6849   */\n      0x00\n        /* \"#utility.yul\":6840:6846   */\n      dup3\n        /* \"#utility.yul\":6836:6850   */\n      add\n        /* \"#utility.yul\":6829:6887   */\n      mstore\n        /* \"#utility.yul\":6921:6927   */\n      0x6865727300000000000000000000000000000000000000000000000000000000\n        /* \"#utility.yul\":6916:6918   */\n      0x20\n        /* \"#utility.yul\":6908:6914   */\n      dup3\n        /* \"#utility.yul\":6904:6919   */\n      add\n        /* \"#utility.yul\":6897:6928   */\n      mstore\n        /* \"#utility.yul\":6712:6935   */\n      pop\n      jump\t// out\n        /* \"#utility.yul\":6941:7307   */\n    tag_83:\n        /* \"#utility.yul\":7083:7086   */\n      0x00\n        /* \"#utility.yul\":7104:7171   */\n      tag_147\n        /* \"#utility.yul\":7168:7170   */\n      0x24\n        /* \"#utility.yul\":7163:7166   */\n      dup4\n        /* \"#utility.yul\":7104:7171   */\n      tag_72\n      jump\t// in\n    tag_147:\n        /* \"#utility.yul\":7097:7171   */\n      swap2\n      pop\n        /* \"#utility.yul\":7180:7273   */\n      tag_148\n        /* \"#utility.yul\":7269:7272   */\n      dup3\n        /* \"#utility.yul\":7180:7273   */\n      tag_82\n      jump\t// in\n    tag_148:\n        /* \"#utility.yul\":7298:7300   */\n      0x40\n        /* \"#utility.yul\":7293:7296   */\n      dup3\n        /* \"#utility.yul\":7289:7301   */\n      add\n        /* \"#utility.yul\":7282:7301   */\n      swap1\n      pop\n        /* \"#utility.yul\":6941:7307   */\n      swap2\n      swap1\n      pop\n      jump\t// out\n        /* \"#utility.yul\":7313:7732   */\n    tag_56:\n        /* \"#utility.yul\":7479:7483   */\n      0x00\n        /* \"#utility.yul\":7517:7519   */\n      0x20\n        /* \"#utility.yul\":7506:7515   */\n      dup3\n        /* \"#utility.yul\":7502:7520   */\n      add\n        /* \"#utility.yul\":7494:7520   */\n      swap1\n      pop\n        /* \"#utility.yul\":7566:7575   */\n      dup2\n        /* \"#utility.yul\":7560:7564   */\n      dup2\n        /* \"#utility.yul\":7556:7576   */\n      sub\n        /* \"#utility.yul\":7552:7553   */\n      0x00\n        /* \"#utility.yul\":7541:7550   */\n      dup4\n        /* \"#utility.yul\":7537:7554   */\n      add\n        /* \"#utility.yul\":7530:7577   */\n      mstore\n        /* \"#utility.yul\":7594:7725   */\n      tag_150\n        /* \"#utility.yul\":7720:7724   */\n      dup2\n        /* \"#utility.yul\":7594:7725   */\n      tag_83\n      jump\t// in\n    tag_150:\n        /* \"#utility.yul\":7586:7725   */\n      swap1\n      pop\n        /* \"#utility.yul\":7313:7732   */\n      swap2\n      swap1\n      pop\n      jump\t// out\n        /* \"#utility.yul\":7738:7918   */\n    tag_84:\n        /* \"#utility.yul\":7786:7863   */\n      0x4e487b7100000000000000000000000000000000000000000000000000000000\n        /* \"#utility.yul\":7783:7784   */\n      0x00\n        /* \"#utility.yul\":7776:7864   */\n      mstore\n        /* \"#utility.yul\":7883:7887   */\n      0x11\n        /* \"#utility.yul\":7880:7881   */\n      0x04\n        /* \"#utility.yul\":7873:7888   */\n      mstore\n        /* \"#utility.yul\":7907:7911   */\n      0x24\n        /* \"#utility.yul\":7904:7905   */\n      0x00\n        /* \"#utility.yul\":7897:7912   */\n      revert\n        /* \"#utility.yul\":7924:8115   */\n    tag_58:\n        /* \"#utility.yul\":7964:7967   */\n      0x00\n        /* \"#utility.yul\":7983:8003   */\n      tag_153\n        /* \"#utility.yul\":8001:8002   */\n      dup3\n        /* \"#utility.yul\":7983:8003   */\n      tag_67\n      jump\t// in\n    tag_153:\n        /* \"#utility.yul\":7978:8003   */\n      swap2\n      pop\n        /* \"#utility.yul\":8017:8037   */\n      tag_154\n        /* \"#utility.yul\":8035:8036   */\n      dup4\n        /* \"#utility.yul\":8017:8037   */\n      tag_67\n      jump\t// in\n    tag_154:\n        /* \"#utility.yul\":8012:8037   */\n      swap3\n      pop\n        /* \"#utility.yul\":8060:8061   */\n      dup3\n        /* \"#utility.yul\":8057:8058   */\n      dup3\n        /* \"#utility.yul\":8053:8062   */\n      add\n        /* \"#utility.yul\":8046:8062   */\n      swap1\n      pop\n        /* \"#utility.yul\":8081:8084   */\n      dup1\n        /* \"#utility.yul\":8078:8079   */\n      dup3\n        /* \"#utility.yul\":8075:8085   */\n      gt\n        /* \"#utility.yul\":8072:8108   */\n      iszero\n      tag_155\n      jumpi\n        /* \"#utility.yul\":8088:8106   */\n      tag_156\n      tag_84\n      jump\t// in\n    tag_156:\n        /* \"#utility.yul\":8072:8108   */\n    tag_155:\n        /* \"#utility.yul\":7924:8115   */\n      swap3\n      swap2\n      pop\n      pop\n      jump\t// out\n\n    auxdata: 0xa264697066735822122021a666fe0731b92e835f35f5e1e6646ecebbae4ad50ba18365833b6d717cf88964736f6c634300081e0033\n}\n",
				"bytecode": {
					"linkReferences": {},
					"object": "6080604052348015600e575f5ffd5b50335f5f6101000a81548173ffffffffffffffffffffffffffffffffffffffff021916908373ffffffffffffffffffffffffffffffffffffffff16021790555061082a8061005b5f395ff3fe608060405260043610610054575f3560e01c8063031b36771461005857806361e9b9a1146100945780638da5cb5b146100bc578063a0d368d7146100e6578063b60d428814610110578063d407ca941461011a575b5f5ffd5b348015610063575f5ffd5b5061007e600480360381019061007991906104a4565b610156565b60405161008b91906104e7565b60405180910390f35b34801561009f575f5ffd5b506100ba60048036038101906100b5919061052a565b61016b565b005b3480156100c7575f5ffd5b506100d0610307565b6040516100dd9190610564565b60405180910390f35b3480156100f1575f5ffd5b506100fa61032b565b60405161010791906104e7565b60405180910390f35b610118610332565b005b348015610125575f5ffd5b50610140600480360381019061013b91906104a4565b610400565b60405161014d91906104e7565b60405180910390f35b6001602052805f5260405f205f915090505481565b5f5f9054906101000a900473ffffffffffffffffffffffffffffffffffffffff1673ffffffffffffffffffffffffffffffffffffffff163373ffffffffffffffffffffffffffffffffffffffff16146101f9576040517f08c379a00000000000000000000000000000000000000000000000000000000081526004016101f0906105d7565b60405180910390fd5b80471161023b576040517f08c379a00000000000000000000000000000000000000000000000000000000081526004016102329061063f565b60405180910390fd5b5f5f5f9054906101000a900473ffffffffffffffffffffffffffffffffffffffff1673ffffffffffffffffffffffffffffffffffffffff16826040516102809061068a565b5f6040518083038185875af1925050503d805f81146102ba576040519150601f19603f3d011682016040523d82523d5f602084013e6102bf565b606091505b5050905080610303576040517f08c379a00000000000000000000000000000000000000000000000000000000081526004016102fa906106e8565b60405180910390fd5b5050565b5f5f9054906101000a900473ffffffffffffffffffffffffffffffffffffffff1681565b5f47905090565b5f3411610374576040517f08c379a000000000000000000000000000000000000000000000000000000000815260040161036b90610776565b60405180910390fd5b3460015f3373ffffffffffffffffffffffffffffffffffffffff1673ffffffffffffffffffffffffffffffffffffffff1681526020019081526020015f20546103bd91906107c1565b60015f3373ffffffffffffffffffffffffffffffffffffffff1673ffffffffffffffffffffffffffffffffffffffff1681526020019081526020015f2081905550565b5f60015f8373ffffffffffffffffffffffffffffffffffffffff1673ffffffffffffffffffffffffffffffffffffffff1681526020019081526020015f20549050919050565b5f5ffd5b5f73ffffffffffffffffffffffffffffffffffffffff82169050919050565b5f6104738261044a565b9050919050565b61048381610469565b811461048d575f5ffd5b50565b5f8135905061049e8161047a565b92915050565b5f602082840312156104b9576104b8610446565b5b5f6104c684828501610490565b91505092915050565b5f819050919050565b6104e1816104cf565b82525050565b5f6020820190506104fa5f8301846104d8565b92915050565b610509816104cf565b8114610513575f5ffd5b50565b5f8135905061052481610500565b92915050565b5f6020828403121561053f5761053e610446565b5b5f61054c84828501610516565b91505092915050565b61055e81610469565b82525050565b5f6020820190506105775f830184610555565b92915050565b5f82825260208201905092915050565b7f6f6e6c7579206f776e65722063616e20736565000000000000000000000000005f82015250565b5f6105c160138361057d565b91506105cc8261058d565b602082019050919050565b5f6020820190508181035f8301526105ee816105b5565b9050919050565b7f696e73756666696369656e742062616c616e63650000000000000000000000005f82015250565b5f61062960148361057d565b9150610634826105f5565b602082019050919050565b5f6020820190508181035f8301526106568161061d565b9050919050565b5f81905092915050565b50565b5f6106755f8361065d565b915061068082610667565b5f82019050919050565b5f6106948261066a565b9150819050919050565b7f496e76616c6964000000000000000000000000000000000000000000000000005f82015250565b5f6106d260078361057d565b91506106dd8261069e565b602082019050919050565b5f6020820190508181035f8301526106ff816106c6565b9050919050565b7f63616e6e6f74206265207a65726f206d7573742073656e6420736f6d652065745f8201527f6865727300000000000000000000000000000000000000000000000000000000602082015250565b5f61076060248361057d565b915061076b82610706565b604082019050919050565b5f6020820190508181035f83015261078d81610754565b9050919050565b7f4e487b71000000000000000000000000000000000000000000000000000000005f52601160045260245ffd5b5f6107cb826104cf565b91506107d6836104cf565b92508282019050808211156107ee576107ed610794565b5b9291505056fea264697066735822122021a666fe0731b92e835f35f5e1e6646ecebbae4ad50ba18365833b6d717cf88964736f6c634300081e0033",
					"opcodes": "PUSH1 0x80 PUSH1 0x40 MSTORE CALLVALUE DUP1 ISZERO PUSH1 0xE JUMPI PUSH0 PUSH0 REVERT JUMPDEST POP CALLER PUSH0 PUSH0 PUSH2 0x100 EXP DUP2 SLOAD DUP2 PUSH20 0xFFFFFFFFFFFFFFFFFFFFFFFFFFFFFFFFFFFFFFFF MUL NOT AND SWAP1 DUP4 PUSH20 0xFFFFFFFFFFFFFFFFFFFFFFFFFFFFFFFFFFFFFFFF AND MUL OR SWAP1 SSTORE POP PUSH2 0x82A DUP1 PUSH2 0x5B PUSH0 CODECOPY PUSH0 RETURN INVALID PUSH1 0x80 PUSH1 0x40 MSTORE PUSH1 0x4 CALLDATASIZE LT PUSH2 0x54 JUMPI PUSH0 CALLDATALOAD PUSH1 0xE0 SHR DUP1 PUSH4 0x31B3677 EQ PUSH2 0x58 JUMPI DUP1 PUSH4 0x61E9B9A1 EQ PUSH2 0x94 JUMPI DUP1 PUSH4 0x8DA5CB5B EQ PUSH2 0xBC JUMPI DUP1 PUSH4 0xA0D368D7 EQ PUSH2 0xE6 JUMPI DUP1 PUSH4 0xB60D4288 EQ PUSH2 0x110 JUMPI DUP1 PUSH4 0xD407CA94 EQ PUSH2 0x11A JUMPI JUMPDEST PUSH0 PUSH0 REVERT JUMPDEST CALLVALUE DUP1 ISZERO PUSH2 0x63 JUMPI PUSH0 PUSH0 REVERT JUMPDEST POP PUSH2 0x7E PUSH1 0x4 DUP1 CALLDATASIZE SUB DUP2 ADD SWAP1 PUSH2 0x79 SWAP2 SWAP1 PUSH2 0x4A4 JUMP JUMPDEST PUSH2 0x156 JUMP JUMPDEST PUSH1 0x40 MLOAD PUSH2 0x8B SWAP2 SWAP1 PUSH2 0x4E7 JUMP JUMPDEST PUSH1 0x40 MLOAD DUP1 SWAP2 SUB SWAP1 RETURN JUMPDEST CALLVALUE DUP1 ISZERO PUSH2 0x9F JUMPI PUSH0 PUSH0 REVERT JUMPDEST POP PUSH2 0xBA PUSH1 0x4 DUP1 CALLDATASIZE SUB DUP2 ADD SWAP1 PUSH2 0xB5 SWAP2 SWAP1 PUSH2 0x52A JUMP JUMPDEST PUSH2 0x16B JUMP JUMPDEST STOP JUMPDEST CALLVALUE DUP1 ISZERO PUSH2 0xC7 JUMPI PUSH0 PUSH0 REVERT JUMPDEST POP PUSH2 0xD0 PUSH2 0x307 JUMP JUMPDEST PUSH1 0x40 MLOAD PUSH2 0xDD SWAP2 SWAP1 PUSH2 0x564 JUMP JUMPDEST PUSH1 0x40 MLOAD DUP1 SWAP2 SUB SWAP1 RETURN JUMPDEST CALLVALUE DUP1 ISZERO PUSH2 0xF1 JUMPI PUSH0 PUSH0 REVERT JUMPDEST POP PUSH2 0xFA PUSH2 0x32B JUMP JUMPDEST PUSH1 0x40 MLOAD PUSH2 0x107 SWAP2 SWAP1 PUSH2 0x4E7 JUMP JUMPDEST PUSH1 0x40 MLOAD DUP1 SWAP2 SUB SWAP1 RETURN JUMPDEST PUSH2 0x118 PUSH2 0x332 JUMP JUMPDEST STOP JUMPDEST CALLVALUE DUP1 ISZERO PUSH2 0x125 JUMPI PUSH0 PUSH0 REVERT JUMPDEST POP PUSH2 0x140 PUSH1 0x4 DUP1 CALLDATASIZE SUB DUP2 ADD SWAP1 PUSH2 0x13B SWAP2 SWAP1 PUSH2 0x4A4 JUMP JUMPDEST PUSH2 0x400 JUMP JUMPDEST PUSH1 0x40 MLOAD PUSH2 0x14D SWAP2 SWAP1 PUSH2 0x4E7 JUMP JUMPDEST PUSH1 0x40 MLOAD DUP1 SWAP2 SUB SWAP1 RETURN JUMPDEST PUSH1 0x1 PUSH1 0x20 MSTORE DUP1 PUSH0 MSTORE PUSH1 0x40 PUSH0 KECCAK256 PUSH0 SWAP2 POP SWAP1 POP SLOAD DUP2 JUMP JUMPDEST PUSH0 PUSH0 SWAP1 SLOAD SWAP1 PUSH2 0x100 EXP SWAP1 DIV PUSH20 0xFFFFFFFFFFFFFFFFFFFFFFFFFFFFFFFFFFFFFFFF AND PUSH20 0xFFFFFFFFFFFFFFFFFFFFFFFFFFFFFFFFFFFFFFFF AND CALLER PUSH20 0xFFFFFFFFFFFFFFFFFFFFFFFFFFFFFFFFFFFFFFFF AND EQ PUSH2 0x1F9 JUMPI PUSH1 0x40 MLOAD PUSH32 0x8C379A000000000000000000000000000000000000000000000000000000000 DUP2 MSTORE PUSH1 0x4 ADD PUSH2 0x1F0 SWAP1 PUSH2 0x5D7 JUMP JUMPDEST PUSH1 0x40 MLOAD DUP1 SWAP2 SUB SWAP1 REVERT JUMPDEST DUP1 SELFBALANCE GT PUSH2 0x23B JUMPI PUSH1 0x40 MLOAD PUSH32 0x8C379A000000000000000000000000000000000000000000000000000000000 DUP2 MSTORE PUSH1 0x4 ADD PUSH2 0x232 SWAP1 PUSH2 0x63F JUMP JUMPDEST PUSH1 0x40 MLOAD DUP1 SWAP2 SUB SWAP1 REVERT JUMPDEST PUSH0 PUSH0 PUSH0 SWAP1 SLOAD SWAP1 PUSH2 0x100 EXP SWAP1 DIV PUSH20 0xFFFFFFFFFFFFFFFFFFFFFFFFFFFFFFFFFFFFFFFF AND PUSH20 0xFFFFFFFFFFFFFFFFFFFFFFFFFFFFFFFFFFFFFFFF AND DUP3 PUSH1 0x40 MLOAD PUSH2 0x280 SWAP1 PUSH2 0x68A JUMP JUMPDEST PUSH0 PUSH1 0x40 MLOAD DUP1 DUP4 SUB DUP2 DUP6 DUP8 GAS CALL SWAP3 POP POP POP RETURNDATASIZE DUP1 PUSH0 DUP2 EQ PUSH2 0x2BA JUMPI PUSH1 0x40 MLOAD SWAP2 POP PUSH1 0x1F NOT PUSH1 0x3F RETURNDATASIZE ADD AND DUP3 ADD PUSH1 0x40 MSTORE RETURNDATASIZE DUP3 MSTORE RETURNDATASIZE PUSH0 PUSH1 0x20 DUP5 ADD RETURNDATACOPY PUSH2 0x2BF JUMP JUMPDEST PUSH1 0x60 SWAP2 POP JUMPDEST POP POP SWAP1 POP DUP1 PUSH2 0x303 JUMPI PUSH1 0x40 MLOAD PUSH32 0x8C379A000000000000000000000000000000000000000000000000000000000 DUP2 MSTORE PUSH1 0x4 ADD PUSH2 0x2FA SWAP1 PUSH2 0x6E8 JUMP JUMPDEST PUSH1 0x40 MLOAD DUP1 SWAP2 SUB SWAP1 REVERT JUMPDEST POP POP JUMP JUMPDEST PUSH0 PUSH0 SWAP1 SLOAD SWAP1 PUSH2 0x100 EXP SWAP1 DIV PUSH20 0xFFFFFFFFFFFFFFFFFFFFFFFFFFFFFFFFFFFFFFFF AND DUP2 JUMP JUMPDEST PUSH0 SELFBALANCE SWAP1 POP SWAP1 JUMP JUMPDEST PUSH0 CALLVALUE GT PUSH2 0x374 JUMPI PUSH1 0x40 MLOAD PUSH32 0x8C379A000000000000000000000000000000000000000000000000000000000 DUP2 MSTORE PUSH1 0x4 ADD PUSH2 0x36B SWAP1 PUSH2 0x776 JUMP JUMPDEST PUSH1 0x40 MLOAD DUP1 SWAP2 SUB SWAP1 REVERT JUMPDEST CALLVALUE PUSH1 0x1 PUSH0 CALLER PUSH20 0xFFFFFFFFFFFFFFFFFFFFFFFFFFFFFFFFFFFFFFFF AND PUSH20 0xFFFFFFFFFFFFFFFFFFFFFFFFFFFFFFFFFFFFFFFF AND DUP2 MSTORE PUSH1 0x20 ADD SWAP1 DUP2 MSTORE PUSH1 0x20 ADD PUSH0 KECCAK256 SLOAD PUSH2 0x3BD SWAP2 SWAP1 PUSH2 0x7C1 JUMP JUMPDEST PUSH1 0x1 PUSH0 CALLER PUSH20 0xFFFFFFFFFFFFFFFFFFFFFFFFFFFFFFFFFFFFFFFF AND PUSH20 0xFFFFFFFFFFFFFFFFFFFFFFFFFFFFFFFFFFFFFFFF AND DUP2 MSTORE PUSH1 0x20 ADD SWAP1 DUP2 MSTORE PUSH1 0x20 ADD PUSH0 KECCAK256 DUP2 SWAP1 SSTORE POP JUMP JUMPDEST PUSH0 PUSH1 0x1 PUSH0 DUP4 PUSH20 0xFFFFFFFFFFFFFFFFFFFFFFFFFFFFFFFFFFFFFFFF AND PUSH20 0xFFFFFFFFFFFFFFFFFFFFFFFFFFFFFFFFFFFFFFFF AND DUP2 MSTORE PUSH1 0x20 ADD SWAP1 DUP2 MSTORE PUSH1 0x20 ADD PUSH0 KECCAK256 SLOAD SWAP1 POP SWAP2 SWAP1 POP JUMP JUMPDEST PUSH0 PUSH0 REVERT JUMPDEST PUSH0 PUSH20 0xFFFFFFFFFFFFFFFFFFFFFFFFFFFFFFFFFFFFFFFF DUP3 AND SWAP1 POP SWAP2 SWAP1 POP JUMP JUMPDEST PUSH0 PUSH2 0x473 DUP3 PUSH2 0x44A JUMP JUMPDEST SWAP1 POP SWAP2 SWAP1 POP JUMP JUMPDEST PUSH2 0x483 DUP2 PUSH2 0x469 JUMP JUMPDEST DUP2 EQ PUSH2 0x48D JUMPI PUSH0 PUSH0 REVERT JUMPDEST POP JUMP JUMPDEST PUSH0 DUP2 CALLDATALOAD SWAP1 POP PUSH2 0x49E DUP2 PUSH2 0x47A JUMP JUMPDEST SWAP3 SWAP2 POP POP JUMP JUMPDEST PUSH0 PUSH1 0x20 DUP3 DUP5 SUB SLT ISZERO PUSH2 0x4B9 JUMPI PUSH2 0x4B8 PUSH2 0x446 JUMP JUMPDEST JUMPDEST PUSH0 PUSH2 0x4C6 DUP5 DUP3 DUP6 ADD PUSH2 0x490 JUMP JUMPDEST SWAP2 POP POP SWAP3 SWAP2 POP POP JUMP JUMPDEST PUSH0 DUP2 SWAP1 POP SWAP2 SWAP1 POP JUMP JUMPDEST PUSH2 0x4E1 DUP2 PUSH2 0x4CF JUMP JUMPDEST DUP3 MSTORE POP POP JUMP JUMPDEST PUSH0 PUSH1 0x20 DUP3 ADD SWAP1 POP PUSH2 0x4FA PUSH0 DUP4 ADD DUP5 PUSH2 0x4D8 JUMP JUMPDEST SWAP3 SWAP2 POP POP JUMP JUMPDEST PUSH2 0x509 DUP2 PUSH2 0x4CF JUMP JUMPDEST DUP2 EQ PUSH2 0x513 JUMPI PUSH0 PUSH0 REVERT JUMPDEST POP JUMP JUMPDEST PUSH0 DUP2 CALLDATALOAD SWAP1 POP PUSH2 0x524 DUP2 PUSH2 0x500 JUMP JUMPDEST SWAP3 SWAP2 POP POP JUMP JUMPDEST PUSH0 PUSH1 0x20 DUP3 DUP5 SUB SLT ISZERO PUSH2 0x53F JUMPI PUSH2 0x53E PUSH2 0x446 JUMP JUMPDEST JUMPDEST PUSH0 PUSH2 0x54C DUP5 DUP3 DUP6 ADD PUSH2 0x516 JUMP JUMPDEST SWAP2 POP POP SWAP3 SWAP2 POP POP JUMP JUMPDEST PUSH2 0x55E DUP2 PUSH2 0x469 JUMP JUMPDEST DUP3 MSTORE POP POP JUMP JUMPDEST PUSH0 PUSH1 0x20 DUP3 ADD SWAP1 POP PUSH2 0x577 PUSH0 DUP4 ADD DUP5 PUSH2 0x555 JUMP JUMPDEST SWAP3 SWAP2 POP POP JUMP JUMPDEST PUSH0 DUP3 DUP3 MSTORE PUSH1 0x20 DUP3 ADD SWAP1 POP SWAP3 SWAP2 POP POP JUMP JUMPDEST PUSH32 0x6F6E6C7579206F776E65722063616E2073656500000000000000000000000000 PUSH0 DUP3 ADD MSTORE POP JUMP JUMPDEST PUSH0 PUSH2 0x5C1 PUSH1 0x13 DUP4 PUSH2 0x57D JUMP JUMPDEST SWAP2 POP PUSH2 0x5CC DUP3 PUSH2 0x58D JUMP JUMPDEST PUSH1 0x20 DUP3 ADD SWAP1 POP SWAP2 SWAP1 POP JUMP JUMPDEST PUSH0 PUSH1 0x20 DUP3 ADD SWAP1 POP DUP2 DUP2 SUB PUSH0 DUP4 ADD MSTORE PUSH2 0x5EE DUP2 PUSH2 0x5B5 JUMP JUMPDEST SWAP1 POP SWAP2 SWAP1 POP JUMP JUMPDEST PUSH32 0x696E73756666696369656E742062616C616E6365000000000000000000000000 PUSH0 DUP3 ADD MSTORE POP JUMP JUMPDEST PUSH0 PUSH2 0x629 PUSH1 0x14 DUP4 PUSH2 0x57D JUMP JUMPDEST SWAP2 POP PUSH2 0x634 DUP3 PUSH2 0x5F5 JUMP JUMPDEST PUSH1 0x20 DUP3 ADD SWAP1 POP SWAP2 SWAP1 POP JUMP JUMPDEST PUSH0 PUSH1 0x20 DUP3 ADD SWAP1 POP DUP2 DUP2 SUB PUSH0 DUP4 ADD MSTORE PUSH2 0x656 DUP2 PUSH2 0x61D JUMP JUMPDEST SWAP1 POP SWAP2 SWAP1 POP JUMP JUMPDEST PUSH0 DUP2 SWAP1 POP SWAP3 SWAP2 POP POP JUMP JUMPDEST POP JUMP JUMPDEST PUSH0 PUSH2 0x675 PUSH0 DUP4 PUSH2 0x65D JUMP JUMPDEST SWAP2 POP PUSH2 0x680 DUP3 PUSH2 0x667 JUMP JUMPDEST PUSH0 DUP3 ADD SWAP1 POP SWAP2 SWAP1 POP JUMP JUMPDEST PUSH0 PUSH2 0x694 DUP3 PUSH2 0x66A JUMP JUMPDEST SWAP2 POP DUP2 SWAP1 POP SWAP2 SWAP1 POP JUMP JUMPDEST PUSH32 0x496E76616C696400000000000000000000000000000000000000000000000000 PUSH0 DUP3 ADD MSTORE POP JUMP JUMPDEST PUSH0 PUSH2 0x6D2 PUSH1 0x7 DUP4 PUSH2 0x57D JUMP JUMPDEST SWAP2 POP PUSH2 0x6DD DUP3 PUSH2 0x69E JUMP JUMPDEST PUSH1 0x20 DUP3 ADD SWAP1 POP SWAP2 SWAP1 POP JUMP JUMPDEST PUSH0 PUSH1 0x20 DUP3 ADD SWAP1 POP DUP2 DUP2 SUB PUSH0 DUP4 ADD MSTORE PUSH2 0x6FF DUP2 PUSH2 0x6C6 JUMP JUMPDEST SWAP1 POP SWAP2 SWAP1 POP JUMP JUMPDEST PUSH32 0x63616E6E6F74206265207A65726F206D7573742073656E6420736F6D65206574 PUSH0 DUP3 ADD MSTORE PUSH32 0x6865727300000000000000000000000000000000000000000000000000000000 PUSH1 0x20 DUP3 ADD MSTORE POP JUMP JUMPDEST PUSH0 PUSH2 0x760 PUSH1 0x24 DUP4 PUSH2 0x57D JUMP JUMPDEST SWAP2 POP PUSH2 0x76B DUP3 PUSH2 0x706 JUMP JUMPDEST PUSH1 0x40 DUP3 ADD SWAP1 POP SWAP2 SWAP1 POP JUMP JUMPDEST PUSH0 PUSH1 0x20 DUP3 ADD SWAP1 POP DUP2 DUP2 SUB PUSH0 DUP4 ADD MSTORE PUSH2 0x78D DUP2 PUSH2 0x754 JUMP JUMPDEST SWAP1 POP SWAP2 SWAP1 POP JUMP JUMPDEST PUSH32 0x4E487B7100000000000000000000000000000000000000000000000000000000 PUSH0 MSTORE PUSH1 0x11 PUSH1 0x4 MSTORE PUSH1 0x24 PUSH0 REVERT JUMPDEST PUSH0 PUSH2 0x7CB DUP3 PUSH2 0x4CF JUMP JUMPDEST SWAP2 POP PUSH2 0x7D6 DUP4 PUSH2 0x4CF JUMP JUMPDEST SWAP3 POP DUP3 DUP3 ADD SWAP1 POP DUP1 DUP3 GT ISZERO PUSH2 0x7EE JUMPI PUSH2 0x7ED PUSH2 0x794 JUMP JUMPDEST JUMPDEST SWAP3 SWAP2 POP POP JUMP INVALID LOG2 PUSH5 0x6970667358 0x22 SLT KECCAK256 0x21 0xA6 PUSH7 0xFE0731B92E835F CALLDATALOAD CREATE2 RJUMPI 0xE664 PUSH15 0xCEBBAE4AD50BA18365833B6D717CF8 DUP10 PUSH5 0x736F6C6343 STOP ADDMOD 0x1E STOP CALLER "
				},
				"gasEstimates": {
					"creation": {
						"codeDepositCost": "418000",
						"executionCost": "24717",
						"totalCost": "442717"
					},
					"external": {
						"fund()": "infinite",
						"funders(address)": "2780",
						"getBlanc()": "378",
						"getFundamt(address)": "2917",
						"owner()": "2529",
						"withdrows(uint256)": "infinite"
					}
				},
				"methodIdentifiers": {
					"fund()": "b60d4288",
					"funders(address)": "031b3677",
					"getBlanc()": "a0d368d7",
					"getFundamt(address)": "d407ca94",
					"owner()": "8da5cb5b",
					"withdrows(uint256)": "61e9b9a1"
				}
			},
			"storageLayout": {
				"storage": [
					{
						"astId": 3,
						"contract": "tutedudecourse/seeFunders.sol:seeFunders",
						"label": "owner",
						"offset": 0,
						"slot": "0",
						"type": "t_address"
					},
					{
						"astId": 7,
						"contract": "tutedudecourse/seeFunders.sol:seeFunders",
						"label": "funders",
						"offset": 0,
						"slot": "1",
						"type": "t_mapping(t_address,t_uint256)"
					}
				],
				"types": {
					"t_address": {
						"encoding": "inplace",
						"label": "address",
						"numberOfBytes": "20"
					},
					"t_mapping(t_address,t_uint256)": {
						"encoding": "mapping",
						"key": "t_address",
						"label": "mapping(address => uint256)",
						"numberOfBytes": "32",
						"value": "t_uint256"
					},
					"t_uint256": {
						"encoding": "inplace",
						"label": "uint256",
						"numberOfBytes": "32"
					}
				}
			},
			"userdoc": {
				"kind": "user",
				"methods": {},
				"version": 1
			}
		}
	}
}